{
  "contractName": "Token",
  "abi": [
    {
      "inputs": [],
      "stateMutability": "nonpayable",
      "type": "constructor"
    },
    {
      "anonymous": false,
      "inputs": [
        {
          "indexed": false,
          "internalType": "uint256",
          "name": "newTokenId",
          "type": "uint256"
        },
        {
          "indexed": false,
          "internalType": "uint256",
          "name": "externalTokenId",
          "type": "uint256"
        },
        {
          "indexed": false,
          "internalType": "string",
          "name": "sourceChain",
          "type": "string"
        }
      ],
      "name": "CrossChainTokenImported",
      "type": "event"
    },
    {
      "anonymous": false,
      "inputs": [
        {
          "indexed": false,
          "internalType": "uint256",
          "name": "tokenId",
          "type": "uint256"
        },
        {
          "indexed": false,
          "internalType": "string",
          "name": "name",
          "type": "string"
        },
        {
          "indexed": false,
          "internalType": "string",
          "name": "credentialTitle",
          "type": "string"
        },
        {
          "indexed": false,
          "internalType": "string",
          "name": "credentialID",
          "type": "string"
        }
      ],
      "name": "TokenIssued",
      "type": "event"
    },
    {
      "anonymous": false,
      "inputs": [
        {
          "indexed": false,
          "internalType": "uint256",
          "name": "tokenId",
          "type": "uint256"
        }
      ],
      "name": "TokenRevoked",
      "type": "event"
    },
    {
      "inputs": [],
      "name": "importedTokenCount",
      "outputs": [
        {
          "internalType": "uint256",
          "name": "",
          "type": "uint256"
        }
      ],
      "stateMutability": "view",
      "type": "function",
      "constant": true
    },
    {
      "inputs": [],
      "name": "owner",
      "outputs": [
        {
          "internalType": "address",
          "name": "",
          "type": "address"
        }
      ],
      "stateMutability": "view",
      "type": "function",
      "constant": true
    },
    {
      "inputs": [],
      "name": "tokenCount",
      "outputs": [
        {
          "internalType": "uint256",
          "name": "",
          "type": "uint256"
        }
      ],
      "stateMutability": "view",
      "type": "function",
      "constant": true
    },
    {
      "inputs": [
        {
          "internalType": "uint256",
          "name": "",
          "type": "uint256"
        }
      ],
      "name": "tokens",
      "outputs": [
        {
          "internalType": "uint256",
          "name": "token_id",
          "type": "uint256"
        },
        {
          "internalType": "address",
          "name": "issuerPublicKey",
          "type": "address"
        },
        {
          "internalType": "address",
          "name": "recipientPublicKey",
          "type": "address"
        },
        {
          "internalType": "string",
          "name": "name",
          "type": "string"
        },
        {
          "internalType": "string",
          "name": "credentialID",
          "type": "string"
        },
        {
          "internalType": "string",
          "name": "credentialTitle",
          "type": "string"
        },
        {
          "internalType": "string",
          "name": "credentialType",
          "type": "string"
        },
        {
          "internalType": "string",
          "name": "grade",
          "type": "string"
        },
        {
          "internalType": "string",
          "name": "institution",
          "type": "string"
        },
        {
          "internalType": "string",
          "name": "ipfsHash",
          "type": "string"
        },
        {
          "internalType": "bool",
          "name": "isRevoked",
          "type": "bool"
        }
      ],
      "stateMutability": "view",
      "type": "function",
      "constant": true
    },
    {
      "inputs": [
        {
          "internalType": "address",
          "name": "_issuerPublicKey",
          "type": "address"
        },
        {
          "internalType": "address",
          "name": "_recipientPublicKey",
          "type": "address"
        },
        {
          "internalType": "string",
          "name": "_name",
          "type": "string"
        },
        {
          "internalType": "string",
          "name": "_credentialID",
          "type": "string"
        },
        {
          "internalType": "string",
          "name": "_credentialTitle",
          "type": "string"
        },
        {
          "internalType": "string",
          "name": "_credentialType",
          "type": "string"
        },
        {
          "internalType": "string",
          "name": "_grade",
          "type": "string"
        },
        {
          "internalType": "string",
          "name": "_institution",
          "type": "string"
        },
        {
          "internalType": "string",
          "name": "_ipfsHash",
          "type": "string"
        }
      ],
      "name": "issueToken",
      "outputs": [],
      "stateMutability": "nonpayable",
      "type": "function"
    },
    {
      "inputs": [
        {
          "internalType": "uint256",
          "name": "_tokenId",
          "type": "uint256"
        }
      ],
      "name": "revokeToken",
      "outputs": [],
      "stateMutability": "nonpayable",
      "type": "function"
    },
    {
      "inputs": [
        {
          "internalType": "uint256",
          "name": "_tokenId",
          "type": "uint256"
        }
      ],
      "name": "isTokenValid",
      "outputs": [
        {
          "internalType": "bool",
          "name": "",
          "type": "bool"
        }
      ],
      "stateMutability": "view",
      "type": "function",
      "constant": true
    },
    {
      "inputs": [
        {
          "internalType": "uint256",
          "name": "tokenId",
          "type": "uint256"
        }
      ],
      "name": "getToken",
      "outputs": [
        {
          "internalType": "uint256",
          "name": "token_id",
          "type": "uint256"
        },
        {
          "internalType": "address",
          "name": "issuerPublicKey",
          "type": "address"
        },
        {
          "internalType": "address",
          "name": "recipientPublicKey",
          "type": "address"
        },
        {
          "internalType": "string",
          "name": "name",
          "type": "string"
        },
        {
          "internalType": "string",
          "name": "credentialID",
          "type": "string"
        },
        {
          "internalType": "string",
          "name": "credentialTitle",
          "type": "string"
        },
        {
          "internalType": "string",
          "name": "credentialType",
          "type": "string"
        },
        {
          "internalType": "string",
          "name": "grade",
          "type": "string"
        },
        {
          "internalType": "string",
          "name": "institution",
          "type": "string"
        },
        {
          "internalType": "string",
          "name": "ipfsHash",
          "type": "string"
        },
        {
          "internalType": "bool",
          "name": "isRevoked",
          "type": "bool"
        }
      ],
      "stateMutability": "view",
      "type": "function",
      "constant": true
    },
    {
      "inputs": [
        {
          "internalType": "address",
          "name": "externalContract",
          "type": "address"
        },
        {
          "internalType": "uint256",
          "name": "externalTokenId",
          "type": "uint256"
        }
      ],
      "name": "connectToOtherChains",
      "outputs": [],
      "stateMutability": "nonpayable",
      "type": "function"
    }
  ],
  "bytecode": "0x60806040526103e860025534801561001657600080fd5b5060008054600160a060020a03191633179055611985806100386000396000f3fe608060405234801561001057600080fd5b50600436106100b0576000357c0100000000000000000000000000000000000000000000000000000000900480638da5cb5b116100835780638da5cb5b146101235780639f181b5e1461014e578063aa6ba74214610157578063c92243d81461016a578063e4b50cb81461018d57600080fd5b806330f46b8a146100b55780633d937160146100d15780634f64b2be146100e65780637dc9e79b14610110575b600080fd5b6100be60025481565b6040519081526020015b60405180910390f35b6100e46100df36600461115b565b6101a0565b005b6100f96100f4366004611187565b6104b9565b6040516100c89b9a999897969594939291906111f0565b6100e461011e366004611187565b6108d5565b60005461013690600160a060020a031681565b604051600160a060020a0390911681526020016100c8565b6100be60015481565b6100e46101653660046113a2565b6109e5565b61017d610178366004611187565b610bd8565b60405190151581526020016100c8565b6100f961019b366004611187565b610c22565b600054600160a060020a031633146101d65760405160e560020a62461bcd0281526004016101cd906114df565b60405180910390fd5b600082905060008060008060008060008060008060008b600160a060020a031663b09afec18e6040518263ffffffff167c010000000000000000000000000000000000000000000000000000000002815260040161023691815260200190565b600060405180830381865afa158015610253573d6000803e3d6000fd5b505050506040513d6000823e601f3d908101601f1916820160405261027b91908101906115a4565b9a509a509a509a509a509a509a509a509a509a509a50600260008154809291906102a490611726565b9190505550600060025490506040518061016001604052808281526020018c600160a060020a031681526020018b600160a060020a031681526020018a8152602001898152602001888152602001878152602001868152602001858152602001848152602001831515815250600360008381526020019081526020016000206000820151816000015560208201518160010160006101000a815481600160a060020a030219169083600160a060020a0316021790555060408201518160020160006101000a815481600160a060020a030219169083600160a060020a03160217905550606082015181600301908161039c9190611808565b50608082015160048201906103b19082611808565b5060a082015160058201906103c69082611808565b5060c082015160068201906103db9082611808565b5060e082015160078201906103f09082611808565b5061010082015160088201906104069082611808565b50610120820151600982019061041c9082611808565b506101409190910151600a909101805460ff191691151591909117905560408051828152602081018e905260608183018190526013908201527f45787465726e616c20426c6f636b636861696e00000000000000000000000000608082015290517f1f8a885fadad805326db481cc0e4760aa061009819e7fbc0442942692575b4989160a0908290030190a1505050505050505050505050505050565b600360208190526000918252604090912080546001820154600283015493830180549294600160a060020a03928316949216926104f590611766565b80601f016020809104026020016040519081016040528092919081815260200182805461052190611766565b801561056e5780601f106105435761010080835404028352916020019161056e565b820191906000526020600020905b81548152906001019060200180831161055157829003601f168201915b50505050509080600401805461058390611766565b80601f01602080910402602001604051908101604052809291908181526020018280546105af90611766565b80156105fc5780601f106105d1576101008083540402835291602001916105fc565b820191906000526020600020905b8154815290600101906020018083116105df57829003601f168201915b50505050509080600501805461061190611766565b80601f016020809104026020016040519081016040528092919081815260200182805461063d90611766565b801561068a5780601f1061065f5761010080835404028352916020019161068a565b820191906000526020600020905b81548152906001019060200180831161066d57829003601f168201915b50505050509080600601805461069f90611766565b80601f01602080910402602001604051908101604052809291908181526020018280546106cb90611766565b80156107185780601f106106ed57610100808354040283529160200191610718565b820191906000526020600020905b8154815290600101906020018083116106fb57829003601f168201915b50505050509080600701805461072d90611766565b80601f016020809104026020016040519081016040528092919081815260200182805461075990611766565b80156107a65780601f1061077b576101008083540402835291602001916107a6565b820191906000526020600020905b81548152906001019060200180831161078957829003601f168201915b5050505050908060080180546107bb90611766565b80601f01602080910402602001604051908101604052809291908181526020018280546107e790611766565b80156108345780601f1061080957610100808354040283529160200191610834565b820191906000526020600020905b81548152906001019060200180831161081757829003601f168201915b50505050509080600901805461084990611766565b80601f016020809104026020016040519081016040528092919081815260200182805461087590611766565b80156108c25780601f10610897576101008083540402835291602001916108c2565b820191906000526020600020905b8154815290600101906020018083116108a557829003601f168201915b505050600a909301549192505060ff168b565b600054600160a060020a031633146109025760405160e560020a62461bcd0281526004016101cd906114df565b60008181526003602052604081205490036109325760405160e560020a62461bcd0281526004016101cd906118ce565b6000818152600360205260409020600a81015460ff16156109985760405160e560020a62461bcd02815260206004820152601960248201527f546f6b656e20697320616c7265616479207265766f6b6564210000000000000060448201526064016101cd565b600a8101805460ff191660011790556040517fdd1d49ebfce788b875cea0c153d8c2714b07c405b7cb2ed4989f22df886da0ba906109d99084815260200190565b60405180910390a15050565b600054600160a060020a03163314610a125760405160e560020a62461bcd0281526004016101cd906114df565b60018054906000610a2283611726565b9091555050600180546040805161016081018252828152600160a060020a03808e1660208084019182528e8316848601908152606085018f8152608086018f905260a086018e905260c086018d905260e086018c905261010086018b905261012086018a90526000610140870181905288815260039384905296909620855181559251978301805498851673ffffffffffffffffffffffffffffffffffffffff19998a16179055516002830180549190941697169690961790915591519293909290820190610af19082611808565b5060808201516004820190610b069082611808565b5060a08201516005820190610b1b9082611808565b5060c08201516006820190610b309082611808565b5060e08201516007820190610b459082611808565b506101008201516008820190610b5b9082611808565b506101208201516009820190610b719082611808565b506101409190910151600a909101805460ff19169115159190911790556040517f6899ebc651fd6e29755f5e96e669b73485b3c52788c6cb58d522c36e1ce8f92690610bc49083908b908a908c90611905565b60405180910390a150505050505050505050565b6000818152600360205260408120548103610c085760405160e560020a62461bcd0281526004016101cd906118ce565b506000908152600360205260409020600a015460ff161590565b600080600060608060608060608060606000600360008d815260200190815260200160002060000154600003610c6d5760405160e560020a62461bcd0281526004016101cd906118ce565b60008c8152600360208181526040808420815161016081018352815481526001820154600160a060020a03908116948201949094526002820154909316918301919091529182018054919291606084019190610cc890611766565b80601f0160208091040260200160405190810160405280929190818152602001828054610cf490611766565b8015610d415780601f10610d1657610100808354040283529160200191610d41565b820191906000526020600020905b815481529060010190602001808311610d2457829003601f168201915b50505050508152602001600482018054610d5a90611766565b80601f0160208091040260200160405190810160405280929190818152602001828054610d8690611766565b8015610dd35780601f10610da857610100808354040283529160200191610dd3565b820191906000526020600020905b815481529060010190602001808311610db657829003601f168201915b50505050508152602001600582018054610dec90611766565b80601f0160208091040260200160405190810160405280929190818152602001828054610e1890611766565b8015610e655780601f10610e3a57610100808354040283529160200191610e65565b820191906000526020600020905b815481529060010190602001808311610e4857829003601f168201915b50505050508152602001600682018054610e7e90611766565b80601f0160208091040260200160405190810160405280929190818152602001828054610eaa90611766565b8015610ef75780601f10610ecc57610100808354040283529160200191610ef7565b820191906000526020600020905b815481529060010190602001808311610eda57829003601f168201915b50505050508152602001600782018054610f1090611766565b80601f0160208091040260200160405190810160405280929190818152602001828054610f3c90611766565b8015610f895780601f10610f5e57610100808354040283529160200191610f89565b820191906000526020600020905b815481529060010190602001808311610f6c57829003601f168201915b50505050508152602001600882018054610fa290611766565b80601f0160208091040260200160405190810160405280929190818152602001828054610fce90611766565b801561101b5780601f10610ff05761010080835404028352916020019161101b565b820191906000526020600020905b815481529060010190602001808311610ffe57829003601f168201915b5050505050815260200160098201805461103490611766565b80601f016020809104026020016040519081016040528092919081815260200182805461106090611766565b80156110ad5780601f10611082576101008083540402835291602001916110ad565b820191906000526020600020905b81548152906001019060200180831161109057829003601f168201915b50505050508152602001600a820160009054906101000a900460ff1615151515815250509050806000015181602001518260400151836060015184608001518560a001518660c001518760e001518861010001518961012001518a61014001519b509b509b509b509b509b509b509b509b509b509b505091939597999b90929496989a50565b600160a060020a038116811461114857600080fd5b50565b803561115681611133565b919050565b6000806040838503121561116e57600080fd5b823561117981611133565b946020939093013593505050565b60006020828403121561119957600080fd5b5035919050565b60005b838110156111bb5781810151838201526020016111a3565b50506000910152565b600081518084526111dc8160208601602086016111a0565b601f01601f19169290920160200192915050565b8b8152600160a060020a038b1660208201526000610160600160a060020a038c1660408401528060608401526112288184018c6111c4565b9050828103608084015261123c818b6111c4565b905082810360a0840152611250818a6111c4565b905082810360c084015261126481896111c4565b905082810360e084015261127881886111c4565b905082810361010084015261128d81876111c4565b90508281036101208401526112a281866111c4565b9150506112b461014083018415159052565b9c9b505050505050505050505050565b7f4e487b7100000000000000000000000000000000000000000000000000000000600052604160045260246000fd5b604051601f8201601f1916810167ffffffffffffffff8111828210171561131c5761131c6112c4565b604052919050565b600067ffffffffffffffff82111561133e5761133e6112c4565b50601f01601f191660200190565b600082601f83011261135d57600080fd5b813561137061136b82611324565b6112f3565b81815284602083860101111561138557600080fd5b816020850160208301376000918101602001919091529392505050565b60008060008060008060008060006101208a8c0312156113c157600080fd5b6113ca8a61114b565b98506113d860208b0161114b565b975060408a013567ffffffffffffffff808211156113f557600080fd5b6114018d838e0161134c565b985060608c013591508082111561141757600080fd5b6114238d838e0161134c565b975060808c013591508082111561143957600080fd5b6114458d838e0161134c565b965060a08c013591508082111561145b57600080fd5b6114678d838e0161134c565b955060c08c013591508082111561147d57600080fd5b6114898d838e0161134c565b945060e08c013591508082111561149f57600080fd5b6114ab8d838e0161134c565b93506101008c01359150808211156114c257600080fd5b506114cf8c828d0161134c565b9150509295985092959850929598565b60208082526021908201527f4f6e6c79206f776e65722063616e2063616c6c20746869732066756e6374696f60408201527f6e00000000000000000000000000000000000000000000000000000000000000606082015260800190565b805161115681611133565b600082601f83011261155857600080fd5b815161156661136b82611324565b81815284602083860101111561157b57600080fd5b61158c8260208301602087016111a0565b949350505050565b8051801515811461115657600080fd5b60008060008060008060008060008060006101608c8e0312156115c657600080fd5b8b519a506115d660208d0161153c565b99506115e460408d0161153c565b985060608c015167ffffffffffffffff81111561160057600080fd5b61160c8e828f01611547565b98505060808c015167ffffffffffffffff81111561162957600080fd5b6116358e828f01611547565b97505060a08c015167ffffffffffffffff81111561165257600080fd5b61165e8e828f01611547565b96505060c08c015167ffffffffffffffff81111561167b57600080fd5b6116878e828f01611547565b95505060e08c015167ffffffffffffffff8111156116a457600080fd5b6116b08e828f01611547565b9450506101008c015167ffffffffffffffff8111156116ce57600080fd5b6116da8e828f01611547565b9350506101208c015167ffffffffffffffff8111156116f857600080fd5b6117048e828f01611547565b9250506117146101408d01611594565b90509295989b509295989b9093969950565b60006001820161175f577f4e487b7100000000000000000000000000000000000000000000000000000000600052601160045260246000fd5b5060010190565b60028104600182168061177a57607f821691505b6020821081036117b3577f4e487b7100000000000000000000000000000000000000000000000000000000600052602260045260246000fd5b50919050565b601f821115611803576000818152602081206020601f860104810160208610156117e05750805b6020601f860104820191505b818110156117ff578281556001016117ec565b5050505b505050565b815167ffffffffffffffff811115611822576118226112c4565b611836816118308454611766565b846117b9565b602080601f83116001811461186f57600084156118535750858301515b60028086026008870290910a60001904198216178655506117ff565b600085815260208120601f198616915b8281101561189e5788860151825594840194600190910190840161187f565b50858210156118be57878501516008601f88160260020a60001904191681555b5050505050600202600101905550565b60208082526014908201527f546f6b656e20646f65736e277420657869737421000000000000000000000000604082015260600190565b84815260806020820152600061191e60808301866111c4565b828103604084015261193081866111c4565b9050828103606084015261194481856111c4565b97965050505050505056fea2646970667358221220eacc05907d6be37adfb612847931842b1925890d554e00932c493aa7bcf1f93464736f6c63430008140033",
  "immutableReferences": {},
  "source": "// SPDX-License-Identifier: MIT\r\npragma solidity ^0.8.20;\r\n\r\ninterface IExternalBlockchain {\r\n    function getTokenData(\r\n        uint256 tokenId\r\n    )\r\n        external\r\n        view\r\n        returns (\r\n            uint256 token_id,\r\n            address issuerPublicKey,\r\n            address recipientPublicKey,\r\n            string memory name,\r\n            string memory credentialID,\r\n            string memory credentialTitle,\r\n            string memory credentialType,\r\n            string memory grade,\r\n            string memory institution,\r\n            string memory ipfsHash,\r\n            bool isRevoked\r\n        );\r\n}\r\n\r\ncontract Token {\r\n    // State Variables & Constructor\r\n    address public owner;\r\n    uint256 public tokenCount; // Counter for locally issued tokens\r\n    uint256 public importedTokenCount = 1000; // Counter for imported tokens, starts at 1000\r\n    mapping(uint256 => token) public tokens; // Mapping for tokens (local and imported)\r\n\r\n    constructor() {\r\n        owner = msg.sender;\r\n    }\r\n\r\n    // \"onlyOwner\" Modifier\r\n    modifier onlyOwner() {\r\n        require(msg.sender == owner, \"Only owner can call this function\");\r\n        _;\r\n    }\r\n\r\n    // Token Data Structure\r\n    struct token {\r\n        uint256 token_id;\r\n        address issuerPublicKey; // Public key of the issuer\r\n        address recipientPublicKey; // Public key of the recipient\r\n        string name; // Name of the credential holder\r\n        string credentialID; // Unique ID for the credential\r\n        string credentialTitle; // Title of the credential\r\n        string credentialType; // Type of credential (e.g., Certificate, Diploma)\r\n        string grade; // Grade or level of achievement\r\n        string institution; // Name of the issuing institution\r\n        string ipfsHash; // IPFS hash of the credential data\r\n        bool isRevoked; // Revocation status\r\n    }\r\n\r\n    // Events\r\n    event TokenIssued(\r\n        uint256 tokenId,\r\n        string name,\r\n        string credentialTitle,\r\n        string credentialID\r\n    );\r\n    event TokenRevoked(uint256 tokenId);\r\n    event CrossChainTokenImported(\r\n        uint256 newTokenId,\r\n        uint256 externalTokenId,\r\n        string sourceChain\r\n    );\r\n\r\n    // Core Functions\r\n    function issueToken(\r\n        address _issuerPublicKey,\r\n        address _recipientPublicKey,\r\n        string memory _name,\r\n        string memory _credentialID,\r\n        string memory _credentialTitle,\r\n        string memory _credentialType,\r\n        string memory _grade,\r\n        string memory _institution,\r\n        string memory _ipfsHash\r\n    ) public onlyOwner {\r\n        tokenCount++;\r\n        uint256 newTokenId = tokenCount; // Local token IDs start from 1\r\n\r\n        tokens[newTokenId] = token(\r\n            newTokenId,\r\n            _issuerPublicKey,\r\n            _recipientPublicKey,\r\n            _name,\r\n            _credentialID,\r\n            _credentialTitle,\r\n            _credentialType,\r\n            _grade,\r\n            _institution,\r\n            _ipfsHash,\r\n            false\r\n        );\r\n\r\n        emit TokenIssued(newTokenId, _name, _credentialTitle, _credentialID);\r\n    }\r\n\r\n    function revokeToken(uint256 _tokenId) public onlyOwner {\r\n        require(tokens[_tokenId].token_id != 0, \"Token doesn't exist!\");\r\n        token storage t = tokens[_tokenId];\r\n        require(!t.isRevoked, \"Token is already revoked!\");\r\n        t.isRevoked = true;\r\n\r\n        emit TokenRevoked(_tokenId);\r\n    }\r\n\r\n    function isTokenValid(uint256 _tokenId) public view returns (bool) {\r\n        require(tokens[_tokenId].token_id != 0, \"Token doesn't exist!\");\r\n        return !tokens[_tokenId].isRevoked;\r\n    }\r\n\r\n    // Unified getToken function for all tokens\r\n    function getToken(\r\n        uint256 tokenId\r\n    )\r\n        public\r\n        view\r\n        returns (\r\n            uint256 token_id,\r\n            address issuerPublicKey,\r\n            address recipientPublicKey,\r\n            string memory name,\r\n            string memory credentialID,\r\n            string memory credentialTitle,\r\n            string memory credentialType,\r\n            string memory grade,\r\n            string memory institution,\r\n            string memory ipfsHash,\r\n            bool isRevoked\r\n        )\r\n    {\r\n        require(tokens[tokenId].token_id != 0, \"Token doesn't exist!\");\r\n        token memory t = tokens[tokenId];\r\n        return (\r\n            t.token_id,\r\n            t.issuerPublicKey,\r\n            t.recipientPublicKey,\r\n            t.name,\r\n            t.credentialID,\r\n            t.credentialTitle,\r\n            t.credentialType,\r\n            t.grade,\r\n            t.institution,\r\n            t.ipfsHash,\r\n            t.isRevoked\r\n        );\r\n    }\r\n\r\n    // Interoperability Function\r\n    function connectToOtherChains(\r\n        address externalContract,\r\n        uint256 externalTokenId\r\n    ) public onlyOwner {\r\n        // Fetch token data from the external contract\r\n        IExternalBlockchain otherChain = IExternalBlockchain(externalContract);\r\n        (\r\n            uint256 tokenId,\r\n            address issuerPublicKey,\r\n            address recipientPublicKey,\r\n            string memory name,\r\n            string memory credentialID,\r\n            string memory credentialTitle,\r\n            string memory credentialType,\r\n            string memory grade,\r\n            string memory institution,\r\n            string memory ipfsHash,\r\n            bool isRevoked\r\n        ) = otherChain.getTokenData(externalTokenId);\r\n\r\n        // Generate a new token ID for imported tokens\r\n        importedTokenCount++; // Imported token IDs start from 1000\r\n        uint256 newTokenId = importedTokenCount;\r\n\r\n        // Import the token into your blockchain\r\n        tokens[newTokenId] = token(\r\n            newTokenId,\r\n            issuerPublicKey,\r\n            recipientPublicKey,\r\n            name,\r\n            credentialID,\r\n            credentialTitle,\r\n            credentialType,\r\n            grade,\r\n            institution,\r\n            ipfsHash,\r\n            isRevoked\r\n        );\r\n\r\n        emit CrossChainTokenImported(\r\n            newTokenId,\r\n            tokenId,\r\n            \"External Blockchain\"\r\n        );\r\n    }\r\n}\r\n",
  "sourcePath": "/home/tanim/Desktop/besu-tuto/fornt-end-test2-main/truffle/contracts/Token.sol",
  "compiler": {
    "name": "solc",
    "version": "0.8.20+commit.a1b79de6.Emscripten.clang"
  },
  "schemaVersion": "3.4.16",
  "updatedAt": "2025-01-23T14:21:28.489Z",
  "networkType": "ethereum",
  "devdoc": {
    "kind": "dev",
    "methods": {},
    "version": 1
  },
  "userdoc": {
    "kind": "user",
    "methods": {},
    "version": 1
  }
}