{
  "contractName": "Token",
  "abi": [
    {
      "anonymous": false,
      "inputs": [
        {
          "indexed": false,
          "internalType": "uint256",
          "name": "token_id",
          "type": "uint256"
        },
        {
          "indexed": false,
          "internalType": "string",
          "name": "student_name",
          "type": "string"
        },
        {
          "indexed": false,
          "internalType": "string",
          "name": "course",
          "type": "string"
        },
        {
          "indexed": false,
          "internalType": "string",
          "name": "ipfs_id",
          "type": "string"
        }
      ],
      "name": "TokenIssued",
      "type": "event"
    },
    {
      "inputs": [],
      "name": "tokenCount",
      "outputs": [
        {
          "internalType": "uint256",
          "name": "",
          "type": "uint256"
        }
      ],
      "stateMutability": "view",
      "type": "function",
      "constant": true
    },
    {
      "inputs": [
        {
          "internalType": "uint256",
          "name": "",
          "type": "uint256"
        }
      ],
      "name": "tokens",
      "outputs": [
        {
          "internalType": "uint256",
          "name": "token_id",
          "type": "uint256"
        },
        {
          "internalType": "string",
          "name": "student_name",
          "type": "string"
        },
        {
          "internalType": "string",
          "name": "course",
          "type": "string"
        },
        {
          "internalType": "string",
          "name": "institution",
          "type": "string"
        },
        {
          "internalType": "string",
          "name": "ipfs_id",
          "type": "string"
        }
      ],
      "stateMutability": "view",
      "type": "function",
      "constant": true
    },
    {
      "inputs": [
        {
          "internalType": "string",
          "name": "name",
          "type": "string"
        },
        {
          "internalType": "string",
          "name": "_course",
          "type": "string"
        },
        {
          "internalType": "string",
          "name": "_institution",
          "type": "string"
        },
        {
          "internalType": "string",
          "name": "_ipfs_id",
          "type": "string"
        }
      ],
      "name": "issueToken",
      "outputs": [],
      "stateMutability": "nonpayable",
      "type": "function"
    },
    {
      "inputs": [
        {
          "internalType": "uint256",
          "name": "token_id",
          "type": "uint256"
        }
      ],
      "name": "verifyToken",
      "outputs": [
        {
          "components": [
            {
              "internalType": "uint256",
              "name": "token_id",
              "type": "uint256"
            },
            {
              "internalType": "string",
              "name": "student_name",
              "type": "string"
            },
            {
              "internalType": "string",
              "name": "course",
              "type": "string"
            },
            {
              "internalType": "string",
              "name": "institution",
              "type": "string"
            },
            {
              "internalType": "string",
              "name": "ipfs_id",
              "type": "string"
            }
          ],
          "internalType": "struct Token.token",
          "name": "",
          "type": "tuple"
        }
      ],
      "stateMutability": "view",
      "type": "function",
      "constant": true
    }
  ],
  "bytecode": "0x608060405234801561001057600080fd5b50610c0b806100206000396000f3fe608060405234801561001057600080fd5b5060043610610068577c010000000000000000000000000000000000000000000000000000000060003504630366ab85811461006d5780634f64b2be146100825780639f181b5e146100af578063ff85a975146100c6575b600080fd5b61008061007b3660046107f0565b6100e6565b005b61009561009036600461089d565b6101d3565b6040516100a69594939291906108fc565b60405180910390f35b6100b860015481565b6040519081526020016100a6565b6100d96100d436600461089d565b610422565b6040516100a6919061095b565b600180549060006100f6836109e3565b90915550506040805160a08101825260018054808352602080840189815284860189905260608501889052608085018790526000928352908290529390208251815592519192919082019061014b9082610ac5565b50604082015160028201906101609082610ac5565b50606082015160038201906101759082610ac5565b506080820151600482019061018a9082610ac5565b509050507f6899ebc651fd6e29755f5e96e669b73485b3c52788c6cb58d522c36e1ce8f9266001548585846040516101c59493929190610b8b565b60405180910390a150505050565b600060208190529081526040902080546001820180549192916101f590610a23565b80601f016020809104026020016040519081016040528092919081815260200182805461022190610a23565b801561026e5780601f106102435761010080835404028352916020019161026e565b820191906000526020600020905b81548152906001019060200180831161025157829003601f168201915b50505050509080600201805461028390610a23565b80601f01602080910402602001604051908101604052809291908181526020018280546102af90610a23565b80156102fc5780601f106102d1576101008083540402835291602001916102fc565b820191906000526020600020905b8154815290600101906020018083116102df57829003601f168201915b50505050509080600301805461031190610a23565b80601f016020809104026020016040519081016040528092919081815260200182805461033d90610a23565b801561038a5780601f1061035f5761010080835404028352916020019161038a565b820191906000526020600020905b81548152906001019060200180831161036d57829003601f168201915b50505050509080600401805461039f90610a23565b80601f01602080910402602001604051908101604052809291908181526020018280546103cb90610a23565b80156104185780601f106103ed57610100808354040283529160200191610418565b820191906000526020600020905b8154815290600101906020018083116103fb57829003601f168201915b5050505050905085565b6104546040518060a0016040528060008152602001606081526020016060815260200160608152602001606081525090565b6001548211156104c4576040517f08c379a000000000000000000000000000000000000000000000000000000000815260206004820152601460248201527f546f6b656e20646f65736e277420657869737421000000000000000000000000604482015260640160405180910390fd5b60008281526020818152604091829020825160a081019093528054835260018101805491928401916104f590610a23565b80601f016020809104026020016040519081016040528092919081815260200182805461052190610a23565b801561056e5780601f106105435761010080835404028352916020019161056e565b820191906000526020600020905b81548152906001019060200180831161055157829003601f168201915b5050505050815260200160028201805461058790610a23565b80601f01602080910402602001604051908101604052809291908181526020018280546105b390610a23565b80156106005780601f106105d557610100808354040283529160200191610600565b820191906000526020600020905b8154815290600101906020018083116105e357829003601f168201915b5050505050815260200160038201805461061990610a23565b80601f016020809104026020016040519081016040528092919081815260200182805461064590610a23565b80156106925780601f1061066757610100808354040283529160200191610692565b820191906000526020600020905b81548152906001019060200180831161067557829003601f168201915b505050505081526020016004820180546106ab90610a23565b80601f01602080910402602001604051908101604052809291908181526020018280546106d790610a23565b80156107245780601f106106f957610100808354040283529160200191610724565b820191906000526020600020905b81548152906001019060200180831161070757829003601f168201915b5050505050815250509050919050565b7f4e487b7100000000000000000000000000000000000000000000000000000000600052604160045260246000fd5b600082601f83011261077457600080fd5b813567ffffffffffffffff8082111561078f5761078f610734565b604051601f8301601f19908116603f011681019082821181831017156107b7576107b7610734565b816040528381528660208588010111156107d057600080fd5b836020870160208301376000602085830101528094505050505092915050565b6000806000806080858703121561080657600080fd5b843567ffffffffffffffff8082111561081e57600080fd5b61082a88838901610763565b9550602087013591508082111561084057600080fd5b61084c88838901610763565b9450604087013591508082111561086257600080fd5b61086e88838901610763565b9350606087013591508082111561088457600080fd5b5061089187828801610763565b91505092959194509250565b6000602082840312156108af57600080fd5b5035919050565b6000815180845260005b818110156108dc576020818501810151868301820152016108c0565b506000602082860101526020601f19601f83011685010191505092915050565b85815260a06020820152600061091560a08301876108b6565b828103604084015261092781876108b6565b9050828103606084015261093b81866108b6565b9050828103608084015261094f81856108b6565b98975050505050505050565b60208152815160208201526000602083015160a0604084015261098160c08401826108b6565b90506040840151601f198085840301606086015261099f83836108b6565b925060608601519150808584030160808601526109bc83836108b6565b925060808601519150808584030160a0860152506109da82826108b6565b95945050505050565b600060018201610a1c577f4e487b7100000000000000000000000000000000000000000000000000000000600052601160045260246000fd5b5060010190565b600281046001821680610a3757607f821691505b602082108103610a70577f4e487b7100000000000000000000000000000000000000000000000000000000600052602260045260246000fd5b50919050565b601f821115610ac0576000818152602081206020601f86010481016020861015610a9d5750805b6020601f860104820191505b81811015610abc57828155600101610aa9565b5050505b505050565b815167ffffffffffffffff811115610adf57610adf610734565b610af381610aed8454610a23565b84610a76565b602080601f831160018114610b2c5760008415610b105750858301515b60028086026008870290910a6000190419821617865550610abc565b600085815260208120601f198616915b82811015610b5b57888601518255948401946001909101908401610b3c565b5085821015610b7b57878501516008601f88160260020a60001904191681555b5050505050600202600101905550565b848152608060208201526000610ba460808301866108b6565b8281036040840152610bb681866108b6565b90508281036060840152610bca81856108b6565b97965050505050505056fea2646970667358221220a78663d05e8c0702163ea585233e80e246d7d5cff21b355670460607536b95cb64736f6c63430008140033",
  "immutableReferences": {},
  "source": "// SPDX-License-Identifier: MIT\r\npragma solidity ^0.8.20;\r\n\r\ncontract Token {\r\n    struct token {\r\n        uint256 token_id;\r\n        string student_name;\r\n        string course;\r\n        string institution;\r\n        string ipfs_id; // Changed from uint256 to string\r\n    }\r\n\r\n    mapping(uint256 => token) public tokens; // Map token Id to token\r\n    uint256 public tokenCount; // token id\r\n\r\n    event TokenIssued(\r\n        uint256 token_id,\r\n        string student_name,\r\n        string course,\r\n        string ipfs_id // Changed from uint256 to string\r\n    );\r\n\r\n    function issueToken(\r\n        string memory name,\r\n        string memory _course,\r\n        string memory _institution,\r\n        string memory _ipfs_id // Changed from uint256 to string\r\n    ) public {\r\n        tokenCount++;\r\n        tokens[tokenCount] = token(\r\n            tokenCount,\r\n            name,\r\n            _course,\r\n            _institution,\r\n            _ipfs_id\r\n        );\r\n        emit TokenIssued(tokenCount, name, _course, _ipfs_id);\r\n    }\r\n\r\n    function verifyToken(uint256 token_id) public view returns (token memory) {\r\n        require(token_id <= tokenCount, \"Token doesn't exist!\");\r\n        return tokens[token_id];\r\n    }\r\n}\r\n",
  "sourcePath": "/home/tanim/Desktop/besu-tuto/fornt-end-test2-main/truffle/contracts/Token.sol",
  "compiler": {
    "name": "solc",
    "version": "0.8.20+commit.a1b79de6.Emscripten.clang"
  },
  "schemaVersion": "3.4.16",
  "updatedAt": "2025-01-20T12:15:08.105Z",
  "networkType": "ethereum",
  "devdoc": {
    "kind": "dev",
    "methods": {},
    "version": 1
  },
  "userdoc": {
    "kind": "user",
    "methods": {},
    "version": 1
  }
}