{
  "contractName": "Token",
  "abi": [
    {
      "inputs": [],
      "stateMutability": "nonpayable",
      "type": "constructor"
    },
    {
      "anonymous": false,
      "inputs": [
        {
          "indexed": false,
          "internalType": "string",
          "name": "tokenId",
          "type": "string"
        },
        {
          "indexed": false,
          "internalType": "string",
          "name": "name",
          "type": "string"
        },
        {
          "indexed": false,
          "internalType": "string",
          "name": "credentialTitle",
          "type": "string"
        },
        {
          "indexed": false,
          "internalType": "string",
          "name": "credentialID",
          "type": "string"
        }
      ],
      "name": "TokenIssued",
      "type": "event"
    },
    {
      "anonymous": false,
      "inputs": [
        {
          "indexed": false,
          "internalType": "string",
          "name": "tokenId",
          "type": "string"
        }
      ],
      "name": "TokenRevoked",
      "type": "event"
    },
    {
      "inputs": [],
      "name": "lastIssuedTokenId",
      "outputs": [
        {
          "internalType": "string",
          "name": "",
          "type": "string"
        }
      ],
      "stateMutability": "view",
      "type": "function",
      "constant": true
    },
    {
      "inputs": [],
      "name": "owner",
      "outputs": [
        {
          "internalType": "address",
          "name": "",
          "type": "address"
        }
      ],
      "stateMutability": "view",
      "type": "function",
      "constant": true
    },
    {
      "inputs": [],
      "name": "tokenCount",
      "outputs": [
        {
          "internalType": "uint256",
          "name": "",
          "type": "uint256"
        }
      ],
      "stateMutability": "view",
      "type": "function",
      "constant": true
    },
    {
      "inputs": [
        {
          "internalType": "string",
          "name": "",
          "type": "string"
        }
      ],
      "name": "tokens",
      "outputs": [
        {
          "internalType": "string",
          "name": "tokenId",
          "type": "string"
        },
        {
          "internalType": "address",
          "name": "issuerPublicKey",
          "type": "address"
        },
        {
          "internalType": "address",
          "name": "recipientPublicKey",
          "type": "address"
        },
        {
          "internalType": "string",
          "name": "name",
          "type": "string"
        },
        {
          "internalType": "string",
          "name": "credentialID",
          "type": "string"
        },
        {
          "internalType": "string",
          "name": "credentialTitle",
          "type": "string"
        },
        {
          "internalType": "string",
          "name": "credentialType",
          "type": "string"
        },
        {
          "internalType": "string",
          "name": "grade",
          "type": "string"
        },
        {
          "internalType": "string",
          "name": "institution",
          "type": "string"
        },
        {
          "internalType": "string",
          "name": "ipfsHash",
          "type": "string"
        },
        {
          "internalType": "bool",
          "name": "isRevoked",
          "type": "bool"
        }
      ],
      "stateMutability": "view",
      "type": "function",
      "constant": true
    },
    {
      "inputs": [
        {
          "internalType": "address",
          "name": "_issuerPublicKey",
          "type": "address"
        },
        {
          "internalType": "address",
          "name": "_recipientPublicKey",
          "type": "address"
        },
        {
          "internalType": "string",
          "name": "_name",
          "type": "string"
        },
        {
          "internalType": "string",
          "name": "_credentialID",
          "type": "string"
        },
        {
          "internalType": "string",
          "name": "_credentialTitle",
          "type": "string"
        },
        {
          "internalType": "string",
          "name": "_credentialType",
          "type": "string"
        },
        {
          "internalType": "string",
          "name": "_grade",
          "type": "string"
        },
        {
          "internalType": "string",
          "name": "_institution",
          "type": "string"
        },
        {
          "internalType": "string",
          "name": "_ipfsHash",
          "type": "string"
        }
      ],
      "name": "issueToken",
      "outputs": [
        {
          "internalType": "string",
          "name": "newTokenId",
          "type": "string"
        }
      ],
      "stateMutability": "nonpayable",
      "type": "function"
    },
    {
      "inputs": [
        {
          "internalType": "string",
          "name": "_tokenId",
          "type": "string"
        }
      ],
      "name": "revokeToken",
      "outputs": [],
      "stateMutability": "nonpayable",
      "type": "function"
    },
    {
      "inputs": [
        {
          "internalType": "string",
          "name": "_tokenId",
          "type": "string"
        }
      ],
      "name": "isTokenValid",
      "outputs": [
        {
          "internalType": "bool",
          "name": "",
          "type": "bool"
        }
      ],
      "stateMutability": "view",
      "type": "function",
      "constant": true
    },
    {
      "inputs": [
        {
          "internalType": "string",
          "name": "_tokenId",
          "type": "string"
        }
      ],
      "name": "getToken",
      "outputs": [
        {
          "internalType": "string",
          "name": "tokenId",
          "type": "string"
        },
        {
          "internalType": "address",
          "name": "issuerPublicKey",
          "type": "address"
        },
        {
          "internalType": "address",
          "name": "recipientPublicKey",
          "type": "address"
        },
        {
          "internalType": "string",
          "name": "name",
          "type": "string"
        },
        {
          "internalType": "string",
          "name": "credentialID",
          "type": "string"
        },
        {
          "internalType": "string",
          "name": "credentialTitle",
          "type": "string"
        },
        {
          "internalType": "string",
          "name": "credentialType",
          "type": "string"
        },
        {
          "internalType": "string",
          "name": "grade",
          "type": "string"
        },
        {
          "internalType": "string",
          "name": "institution",
          "type": "string"
        },
        {
          "internalType": "string",
          "name": "ipfsHash",
          "type": "string"
        },
        {
          "internalType": "bool",
          "name": "isRevoked",
          "type": "bool"
        }
      ],
      "stateMutability": "view",
      "type": "function",
      "constant": true
    }
  ],
  "bytecode": "0x608060405234801561001057600080fd5b5060008054600160a060020a031916331790556118f4806100326000396000f3fe608060405234801561001057600080fd5b50600436106100a5576000357c0100000000000000000000000000000000000000000000000000000000900480638da5cb5b116100785780638da5cb5b1461012a5780639f181b5e14610155578063aa6ba7421461016c578063c1733f681461017f57600080fd5b806304c2320b146100aa57806333e2df5d146100dd5780633b1f2d04146101005780634068e22d14610115575b600080fd5b6100bd6100b83660046112dc565b610192565b6040516100d49b9a99989796959493929190611369565b60405180910390f35b6100f06100eb3660046112dc565b610644565b60405190151581526020016100d4565b61011361010e3660046112dc565b6106ca565b005b61011d61080c565b6040516100d4919061144b565b60005461013d90600160a060020a031681565b604051600160a060020a0390911681526020016100d4565b61015e60015481565b6040519081526020016100d4565b61011d61017a366004611481565b61089a565b6100bd61018d3660046112dc565b610b23565b80516020818301810180516003825292820191909301209152805481906101b8906115be565b80601f01602080910402602001604051908101604052809291908181526020018280546101e4906115be565b80156102315780601f1061020657610100808354040283529160200191610231565b820191906000526020600020905b81548152906001019060200180831161021457829003601f168201915b505050600184015460028501546003860180549596600160a060020a0393841696929093169450919250610264906115be565b80601f0160208091040260200160405190810160405280929190818152602001828054610290906115be565b80156102dd5780601f106102b2576101008083540402835291602001916102dd565b820191906000526020600020905b8154815290600101906020018083116102c057829003601f168201915b5050505050908060040180546102f2906115be565b80601f016020809104026020016040519081016040528092919081815260200182805461031e906115be565b801561036b5780601f106103405761010080835404028352916020019161036b565b820191906000526020600020905b81548152906001019060200180831161034e57829003601f168201915b505050505090806005018054610380906115be565b80601f01602080910402602001604051908101604052809291908181526020018280546103ac906115be565b80156103f95780601f106103ce576101008083540402835291602001916103f9565b820191906000526020600020905b8154815290600101906020018083116103dc57829003601f168201915b50505050509080600601805461040e906115be565b80601f016020809104026020016040519081016040528092919081815260200182805461043a906115be565b80156104875780601f1061045c57610100808354040283529160200191610487565b820191906000526020600020905b81548152906001019060200180831161046a57829003601f168201915b50505050509080600701805461049c906115be565b80601f01602080910402602001604051908101604052809291908181526020018280546104c8906115be565b80156105155780601f106104ea57610100808354040283529160200191610515565b820191906000526020600020905b8154815290600101906020018083116104f857829003601f168201915b50505050509080600801805461052a906115be565b80601f0160208091040260200160405190810160405280929190818152602001828054610556906115be565b80156105a35780601f10610578576101008083540402835291602001916105a3565b820191906000526020600020905b81548152906001019060200180831161058657829003601f168201915b5050505050908060090180546105b8906115be565b80601f01602080910402602001604051908101604052809291908181526020018280546105e4906115be565b80156106315780601f1061060657610100808354040283529160200191610631565b820191906000526020600020905b81548152906001019060200180831161061457829003601f168201915b505050600a909301549192505060ff168b565b600060038260405161065691906115fb565b9081526040519081900360200190208054610670906115be565b905060000361069d5760405160e560020a62461bcd02815260040161069490611617565b60405180910390fd5b6003826040516106ad91906115fb565b908152604051908190036020019020600a015460ff161592915050565b600054600160a060020a031633146106f75760405160e560020a62461bcd0281526004016106949061164e565b60038160405161070791906115fb565b9081526040519081900360200190208054610721906115be565b90506000036107455760405160e560020a62461bcd02815260040161069490611617565b600060038260405161075791906115fb565b908152604051908190036020019020600a81015490915060ff16156107c15760405160e560020a62461bcd02815260206004820152601960248201527f546f6b656e20697320616c7265616479207265766f6b656421000000000000006044820152606401610694565b600a8101805460ff191660011790556040517fe4ec71b524abe9da6d41c870564c377e825d50eafcf9aca22c975d34c9356bd49061080090849061144b565b60405180910390a15050565b60028054610819906115be565b80601f0160208091040260200160405190810160405280929190818152602001828054610845906115be565b80156108925780601f1061086757610100808354040283529160200191610892565b820191906000526020600020905b81548152906001019060200180831161087557829003601f168201915b505050505081565b600054606090600160a060020a031633146108ca5760405160e560020a62461bcd0281526004016106949061164e565b600180549060006108da836116ab565b91905055506108ea6001546110e0565b90505b6003816040516108fd91906115fb565b9081526040519081900360200190208054610917906115be565b159050610945576001805490600061092e836116ab565b919050555061093e6001546110e0565b90506108ed565b6040518061016001604052808281526020018b600160a060020a031681526020018a600160a060020a03168152602001898152602001888152602001878152602001868152602001858152602001848152602001838152602001600015158152506003826040516109b691906115fb565b908152604051908190036020019020815181906109d39082611724565b506020820151600182018054600160a060020a0392831673ffffffffffffffffffffffffffffffffffffffff1991821617909155604084015160028401805491909316911617905560608201516003820190610a2f9082611724565b5060808201516004820190610a449082611724565b5060a08201516005820190610a599082611724565b5060c08201516006820190610a6e9082611724565b5060e08201516007820190610a839082611724565b506101008201516008820190610a999082611724565b506101208201516009820190610aaf9082611724565b506101409190910151600a909101805460ff19169115159190911790556002610ad88282611724565b507f619325667df100d2ee7945eb2ba15dae6e0b62ac86ac18d0423a1eb9f706ae778189888a604051610b0e94939291906117ea565b60405180910390a19998505050505050505050565b60606000806060806060806060806060600060038c604051610b4591906115fb565b9081526040519081900360200190208054610b5f906115be565b9050600003610b835760405160e560020a62461bcd02815260040161069490611617565b600060038d604051610b9591906115fb565b908152602001604051809103902060405180610160016040529081600082018054610bbf906115be565b80601f0160208091040260200160405190810160405280929190818152602001828054610beb906115be565b8015610c385780601f10610c0d57610100808354040283529160200191610c38565b820191906000526020600020905b815481529060010190602001808311610c1b57829003601f168201915b50505091835250506001820154600160a060020a0390811660208301526002830154166040820152600382018054606090920191610c75906115be565b80601f0160208091040260200160405190810160405280929190818152602001828054610ca1906115be565b8015610cee5780601f10610cc357610100808354040283529160200191610cee565b820191906000526020600020905b815481529060010190602001808311610cd157829003601f168201915b50505050508152602001600482018054610d07906115be565b80601f0160208091040260200160405190810160405280929190818152602001828054610d33906115be565b8015610d805780601f10610d5557610100808354040283529160200191610d80565b820191906000526020600020905b815481529060010190602001808311610d6357829003601f168201915b50505050508152602001600582018054610d99906115be565b80601f0160208091040260200160405190810160405280929190818152602001828054610dc5906115be565b8015610e125780601f10610de757610100808354040283529160200191610e12565b820191906000526020600020905b815481529060010190602001808311610df557829003601f168201915b50505050508152602001600682018054610e2b906115be565b80601f0160208091040260200160405190810160405280929190818152602001828054610e57906115be565b8015610ea45780601f10610e7957610100808354040283529160200191610ea4565b820191906000526020600020905b815481529060010190602001808311610e8757829003601f168201915b50505050508152602001600782018054610ebd906115be565b80601f0160208091040260200160405190810160405280929190818152602001828054610ee9906115be565b8015610f365780601f10610f0b57610100808354040283529160200191610f36565b820191906000526020600020905b815481529060010190602001808311610f1957829003601f168201915b50505050508152602001600882018054610f4f906115be565b80601f0160208091040260200160405190810160405280929190818152602001828054610f7b906115be565b8015610fc85780601f10610f9d57610100808354040283529160200191610fc8565b820191906000526020600020905b815481529060010190602001808311610fab57829003601f168201915b50505050508152602001600982018054610fe1906115be565b80601f016020809104026020016040519081016040528092919081815260200182805461100d906115be565b801561105a5780601f1061102f5761010080835404028352916020019161105a565b820191906000526020600020905b81548152906001019060200180831161103d57829003601f168201915b50505050508152602001600a820160009054906101000a900460ff1615151515815250509050806000015181602001518260400151836060015184608001518560a001518660c001518760e001518861010001518961012001518a61014001519b509b509b509b509b509b509b509b509b509b509b505091939597999b90929496989a50565b604080516005808252818301909252606091600091906020820181803683370190505060408051602081018690526c0100000000000000000000000033029181019190915242605482015290915060009060740160405160208183030381529060405280519060200120905060005b600581101561122d576040518060600160405280603e8152602001611881603e91396040518060600160405280603e8152602001611881603e91395183836020811061119d5761119d611842565b1a60f860020a0260f860020a900460ff166111b8919061185b565b815181106111c8576111c8611842565b602001015160f860020a900460f860020a028382815181106111ec576111ec611842565b60200101907effffffffffffffffffffffffffffffffffffffffffffffffffffffffffffff1916908160001a90535080611225816116ab565b91505061114f565b50909392505050565b60e060020a634e487b7102600052604160045260246000fd5b600082601f83011261126057600080fd5b813567ffffffffffffffff8082111561127b5761127b611236565b604051601f8301601f19908116603f011681019082821181831017156112a3576112a3611236565b816040528381528660208588010111156112bc57600080fd5b836020870160208301376000602085830101528094505050505092915050565b6000602082840312156112ee57600080fd5b813567ffffffffffffffff81111561130557600080fd5b6113118482850161124f565b949350505050565b60005b8381101561133457818101518382015260200161131c565b50506000910152565b60008151808452611355816020860160208601611319565b601f01601f19169290920160200192915050565b600061016080835261137d8184018f61133d565b600160a060020a038e1660208501529050600160a060020a038c16604084015282810360608401526113af818c61133d565b905082810360808401526113c3818b61133d565b905082810360a08401526113d7818a61133d565b905082810360c08401526113eb818961133d565b905082810360e08401526113ff818861133d565b9050828103610100840152611414818761133d565b9050828103610120840152611429818661133d565b91505061143b61014083018415159052565b9c9b505050505050505050505050565b60208152600061145e602083018461133d565b9392505050565b8035600160a060020a038116811461147c57600080fd5b919050565b60008060008060008060008060006101208a8c0312156114a057600080fd5b6114a98a611465565b98506114b760208b01611465565b975060408a013567ffffffffffffffff808211156114d457600080fd5b6114e08d838e0161124f565b985060608c01359150808211156114f657600080fd5b6115028d838e0161124f565b975060808c013591508082111561151857600080fd5b6115248d838e0161124f565b965060a08c013591508082111561153a57600080fd5b6115468d838e0161124f565b955060c08c013591508082111561155c57600080fd5b6115688d838e0161124f565b945060e08c013591508082111561157e57600080fd5b61158a8d838e0161124f565b93506101008c01359150808211156115a157600080fd5b506115ae8c828d0161124f565b9150509295985092959850929598565b6002810460018216806115d257607f821691505b6020821081036115f55760e060020a634e487b7102600052602260045260246000fd5b50919050565b6000825161160d818460208701611319565b9190910192915050565b60208082526014908201527f546f6b656e20646f65736e277420657869737421000000000000000000000000604082015260600190565b60208082526021908201527f4f6e6c79206f776e65722063616e2063616c6c20746869732066756e6374696f60408201527f6e00000000000000000000000000000000000000000000000000000000000000606082015260800190565b6000600182016116ce5760e060020a634e487b7102600052601160045260246000fd5b5060010190565b601f82111561171f576000818152602081206020601f860104810160208610156116fc5750805b6020601f860104820191505b8181101561171b57828155600101611708565b5050505b505050565b815167ffffffffffffffff81111561173e5761173e611236565b6117528161174c84546115be565b846116d5565b602080601f83116001811461178b576000841561176f5750858301515b60028086026008870290910a600019041982161786555061171b565b600085815260208120601f198616915b828110156117ba5788860151825594840194600190910190840161179b565b50858210156117da57878501516008601f88160260020a60001904191681555b5050505050600202600101905550565b6080815260006117fd608083018761133d565b828103602084015261180f818761133d565b90508281036040840152611823818661133d565b90508281036060840152611837818561133d565b979650505050505050565b60e060020a634e487b7102600052603260045260246000fd5b60008261187b5760e060020a634e487b7102600052601260045260246000fd5b50069056fe4142434445464748494a4b4c4d4e4f505152535455565758595a6162636465666768696a6b6c6d6e6f707172737475767778797a30313233343536373839a264697066735822122090eb0d48519512fba50b51c5e5784864f535aadff3083d2c4a4ab3e145b8cb2064736f6c63430008140033",
  "immutableReferences": {},
  "source": "// SPDX-License-Identifier: MIT\r\npragma solidity ^0.8.20;\r\n\r\ncontract Token {\r\n    // State Variables & Constructor\r\n    address public owner;\r\n    uint256 public tokenCount; // Counter used to help generate unique token IDs\r\n\r\n    // Variable to store the last issued token ID for easy lookup.\r\n    string public lastIssuedTokenId;\r\n\r\n    // Mapping now uses a string key (the token's unique ID) instead of an incremental uint256.\r\n    mapping(string => TokenData) public tokens;\r\n\r\n    // Allowed characters for the token ID.\r\n    // Using uppercase, lowercase letters and digits (62 characters total).\r\n    bytes internal constant ALPHABET =\r\n        \"ABCDEFGHIJKLMNOPQRSTUVWXYZabcdefghijklmnopqrstuvwxyz0123456789\";\r\n\r\n    constructor() {\r\n        owner = msg.sender;\r\n    }\r\n\r\n    // \"onlyOwner\" Modifier\r\n    modifier onlyOwner() {\r\n        require(msg.sender == owner, \"Only owner can call this function\");\r\n        _;\r\n    }\r\n\r\n    // Token Data Structure (renamed to TokenData for clarity)\r\n    struct TokenData {\r\n        string tokenId; // Unique token ID (a 5-character string)\r\n        address issuerPublicKey; // Public key of the issuer\r\n        address recipientPublicKey; // Public key of the recipient\r\n        string name; // Name of the credential holder\r\n        string credentialID; // Unique ID for the credential\r\n        string credentialTitle; // Title of the credential\r\n        string credentialType; // Type of credential (e.g., Certificate, Diploma)\r\n        string grade; // Grade or level of achievement\r\n        string institution; // Name of the issuing institution\r\n        string ipfsHash; // IPFS hash of the credential data\r\n        bool isRevoked; // Revocation status\r\n    }\r\n\r\n    // Events (updated tokenId type to string)\r\n    event TokenIssued(\r\n        string tokenId,\r\n        string name,\r\n        string credentialTitle,\r\n        string credentialID\r\n    );\r\n    event TokenRevoked(string tokenId);\r\n\r\n    /**\r\n     * @notice Generates a 5-character token ID using pseudo-randomness.\r\n     * @param nonce A number (such as the current token count) to help generate randomness.\r\n     * @return A 5-character string token ID.\r\n     */\r\n    function generateTokenId(\r\n        uint256 nonce\r\n    ) internal view returns (string memory) {\r\n        bytes memory tokenId = new bytes(5);\r\n        // Generate a pseudo-random hash from the nonce, caller address, and block timestamp.\r\n        bytes32 randomHash = keccak256(\r\n            abi.encodePacked(nonce, msg.sender, block.timestamp)\r\n        );\r\n        // Fill each of the 5 characters by selecting an index from the allowed ALPHABET.\r\n        for (uint256 i = 0; i < 5; i++) {\r\n            tokenId[i] = ALPHABET[uint8(randomHash[i]) % ALPHABET.length];\r\n        }\r\n        return string(tokenId);\r\n    }\r\n\r\n    /**\r\n     * @notice Issues a new token (certificate) with a unique 5-character token ID.\r\n     * @dev Only the contract owner can issue tokens.\r\n     * @return newTokenId The unique 5-character token ID for the newly issued token.\r\n     *\r\n     * @dev Note: While the function returns the new token ID, when executed as a state-changing\r\n     * transaction, Remix will not display the return value automatically. Instead, you can\r\n     * check the `lastIssuedTokenId` public variable or the emitted event.\r\n     */\r\n    function issueToken(\r\n        address _issuerPublicKey,\r\n        address _recipientPublicKey,\r\n        string memory _name,\r\n        string memory _credentialID,\r\n        string memory _credentialTitle,\r\n        string memory _credentialType,\r\n        string memory _grade,\r\n        string memory _institution,\r\n        string memory _ipfsHash\r\n    ) public onlyOwner returns (string memory newTokenId) {\r\n        tokenCount++;\r\n\r\n        // Generate a new token ID.\r\n        newTokenId = generateTokenId(tokenCount);\r\n\r\n        // Ensure uniqueness: if by any chance the token ID already exists, generate a new one.\r\n        while (bytes(tokens[newTokenId].tokenId).length != 0) {\r\n            tokenCount++;\r\n            newTokenId = generateTokenId(tokenCount);\r\n        }\r\n\r\n        // Create the token data and store it in the mapping.\r\n        tokens[newTokenId] = TokenData(\r\n            newTokenId,\r\n            _issuerPublicKey,\r\n            _recipientPublicKey,\r\n            _name,\r\n            _credentialID,\r\n            _credentialTitle,\r\n            _credentialType,\r\n            _grade,\r\n            _institution,\r\n            _ipfsHash,\r\n            false\r\n        );\r\n\r\n        // Update the public variable for easy lookup.\r\n        lastIssuedTokenId = newTokenId;\r\n\r\n        // Emit the TokenIssued event.\r\n        emit TokenIssued(newTokenId, _name, _credentialTitle, _credentialID);\r\n\r\n        return newTokenId;\r\n    }\r\n\r\n    /**\r\n     * @notice Revokes an existing token (certificate) by its unique token ID.\r\n     * @dev Only the contract owner can revoke tokens.\r\n     * @param _tokenId The unique token ID of the certificate to be revoked.\r\n     */\r\n    function revokeToken(string memory _tokenId) public onlyOwner {\r\n        require(\r\n            bytes(tokens[_tokenId].tokenId).length != 0,\r\n            \"Token doesn't exist!\"\r\n        );\r\n        TokenData storage t = tokens[_tokenId];\r\n        require(!t.isRevoked, \"Token is already revoked!\");\r\n        t.isRevoked = true;\r\n\r\n        emit TokenRevoked(_tokenId);\r\n    }\r\n\r\n    /**\r\n     * @notice Checks if a token (certificate) is valid (i.e. exists and is not revoked).\r\n     * @param _tokenId The unique token ID to check.\r\n     * @return True if the token exists and is not revoked.\r\n     */\r\n    function isTokenValid(string memory _tokenId) public view returns (bool) {\r\n        require(\r\n            bytes(tokens[_tokenId].tokenId).length != 0,\r\n            \"Token doesn't exist!\"\r\n        );\r\n        return !tokens[_tokenId].isRevoked;\r\n    }\r\n\r\n    /**\r\n     * @notice Retrieves the details of a token by its unique token ID.\r\n     * @param _tokenId The unique toke\r\n            t.institution,\r\n            t.ipfsHash,\r\n            t.isRevoked\r\n        );\r\n    }\r\n}\r\n\r\n0\r\nn ID.\r\n     * @return tokenId The token's unique ID.\r\n     * @return issuerPublicKey The issuer's public key.\r\n     * @return recipientPublicKey The recipient's public key.\r\n     * @return name The name of the credential holder.\r\n     * @return credentialID The credential's unique ID.\r\n     * @return credentialTitle The title of the credential.\r\n     * @return credentialType The type of credential.\r\n     * @return grade The grade or level of achievement.\r\n     * @return institution The issuing institution.\r\n     * @return ipfsHash The IPFS hash of the credential data.\r\n     * @return isRevoked The revocation status of the token.\r\n     */\r\n    function getToken(\r\n        string memory _tokenId\r\n    )\r\n        public\r\n        view\r\n        returns (\r\n            string memory tokenId,\r\n            address issuerPublicKey,\r\n            address recipientPublicKey,\r\n            string memory name,\r\n            string memory credentialID,\r\n            string memory credentialTitle,\r\n            string memory credentialType,\r\n            string memory grade,\r\n            string memory institution,\r\n            string memory ipfsHash,\r\n            bool isRevoked\r\n        )\r\n    {\r\n        require(\r\n            bytes(tokens[_tokenId].tokenId).length != 0,\r\n            \"Token doesn't exist!\"\r\n        );\r\n        TokenData memory t = tokens[_tokenId];\r\n        return (\r\n            t.tokenId,\r\n            t.issuerPublicKey,\r\n            t.recipientPublicKey,\r\n            t.name,\r\n            t.credentialID,\r\n            t.credentialTitle,\r\n            t.credentialType,\r\n            t.grade,\r\n            t.institution,\r\n            t.ipfsHash,\r\n            t.isRevoked\r\n        );\r\n    }\r\n}\r\n",
  "sourcePath": "/home/tanim/Desktop/besu-tuto/fornt-end-test2-main/truffle/contracts/Token.sol",
  "compiler": {
    "name": "solc",
    "version": "0.8.20+commit.a1b79de6.Emscripten.clang"
  },
  "schemaVersion": "3.4.16",
  "updatedAt": "2025-02-03T11:06:56.212Z",
  "networkType": "ethereum",
  "devdoc": {
    "kind": "dev",
    "methods": {
      "getToken(string)": {
        "params": {
          "_tokenId": "The unique toke t.institution, t.ipfsHash, t.isRevoked ); } } 0 n ID."
        },
        "returns": {
          "credentialID": "The credential's unique ID.",
          "credentialTitle": "The title of the credential.",
          "credentialType": "The type of credential.",
          "grade": "The grade or level of achievement.",
          "institution": "The issuing institution.",
          "ipfsHash": "The IPFS hash of the credential data.",
          "isRevoked": "The revocation status of the token.",
          "issuerPublicKey": "The issuer's public key.",
          "name": "The name of the credential holder.",
          "recipientPublicKey": "The recipient's public key.",
          "tokenId": "The token's unique ID."
        }
      },
      "isTokenValid(string)": {
        "params": {
          "_tokenId": "The unique token ID to check."
        },
        "returns": {
          "_0": "True if the token exists and is not revoked."
        }
      },
      "issueToken(address,address,string,string,string,string,string,string,string)": {
        "details": "Only the contract owner can issue tokens.Note: While the function returns the new token ID, when executed as a state-changing transaction, Remix will not display the return value automatically. Instead, you can check the `lastIssuedTokenId` public variable or the emitted event.",
        "returns": {
          "newTokenId": "The unique 5-character token ID for the newly issued token."
        }
      },
      "revokeToken(string)": {
        "details": "Only the contract owner can revoke tokens.",
        "params": {
          "_tokenId": "The unique token ID of the certificate to be revoked."
        }
      }
    },
    "version": 1
  },
  "userdoc": {
    "kind": "user",
    "methods": {
      "getToken(string)": {
        "notice": "Retrieves the details of a token by its unique token ID."
      },
      "isTokenValid(string)": {
        "notice": "Checks if a token (certificate) is valid (i.e. exists and is not revoked)."
      },
      "issueToken(address,address,string,string,string,string,string,string,string)": {
        "notice": "Issues a new token (certificate) with a unique 5-character token ID."
      },
      "revokeToken(string)": {
        "notice": "Revokes an existing token (certificate) by its unique token ID."
      }
    },
    "version": 1
  }
}